{
  "contractName": "Water",
  "abi": [
    {
      "constant": true,
      "inputs": [
        {
          "name": "",
          "type": "uint256"
        }
      ],
      "name": "Company",
      "outputs": [
        {
          "name": "CompanyAddress",
          "type": "address"
        },
        {
          "name": "Name",
          "type": "string"
        }
      ],
      "payable": false,
      "stateMutability": "view",
      "type": "function"
    },
    {
      "constant": true,
      "inputs": [
        {
          "name": "",
          "type": "uint256"
        }
      ],
      "name": "Regulator",
      "outputs": [
        {
          "name": "RegulatorAddress",
          "type": "address"
        },
        {
          "name": "Name",
          "type": "string"
        }
      ],
      "payable": false,
      "stateMutability": "view",
      "type": "function"
    },
    {
      "constant": true,
      "inputs": [
        {
          "name": "",
          "type": "uint256"
        }
      ],
      "name": "reportStruct",
      "outputs": [
        {
          "name": "ID",
          "type": "uint256"
        },
        {
          "name": "pH",
          "type": "uint256"
        },
        {
          "name": "hardness",
          "type": "uint256"
        },
        {
          "name": "TDS",
          "type": "uint256"
        },
        {
          "name": "sender",
          "type": "address"
        },
        {
          "name": "latest",
          "type": "bool"
        },
        {
          "name": "sign",
          "type": "bool"
        }
      ],
      "payable": false,
      "stateMutability": "view",
      "type": "function"
    },
    {
      "constant": true,
      "inputs": [
        {
          "name": "",
          "type": "uint256"
        }
      ],
      "name": "Lab",
      "outputs": [
        {
          "name": "LabAddress",
          "type": "address"
        },
        {
          "name": "Name",
          "type": "string"
        }
      ],
      "payable": false,
      "stateMutability": "view",
      "type": "function"
    },
    {
      "inputs": [],
      "payable": false,
      "stateMutability": "nonpayable",
      "type": "constructor"
    },
    {
      "payable": true,
      "stateMutability": "payable",
      "type": "fallback"
    },
    {
      "anonymous": false,
      "inputs": [
        {
          "indexed": false,
          "name": "pH",
          "type": "uint256"
        }
      ],
      "name": "getReport",
      "type": "event"
    },
    {
      "constant": false,
      "inputs": [
        {
          "name": "_company",
          "type": "address"
        },
        {
          "name": "_name",
          "type": "string"
        }
      ],
      "name": "addCompany",
      "outputs": [
        {
          "name": "",
          "type": "uint256"
        }
      ],
      "payable": false,
      "stateMutability": "nonpayable",
      "type": "function"
    },
    {
      "constant": false,
      "inputs": [
        {
          "name": "_regulator",
          "type": "address"
        },
        {
          "name": "_name",
          "type": "string"
        }
      ],
      "name": "addRegulator",
      "outputs": [
        {
          "name": "",
          "type": "uint256"
        }
      ],
      "payable": false,
      "stateMutability": "nonpayable",
      "type": "function"
    },
    {
      "constant": false,
      "inputs": [
        {
          "name": "_lab",
          "type": "address"
        },
        {
          "name": "_name",
          "type": "string"
        }
      ],
      "name": "addLab",
      "outputs": [
        {
          "name": "",
          "type": "uint256"
        }
      ],
      "payable": false,
      "stateMutability": "nonpayable",
      "type": "function"
    },
    {
      "constant": true,
      "inputs": [
        {
          "name": "_companyAddress",
          "type": "address"
        }
      ],
      "name": "getCompany",
      "outputs": [
        {
          "name": "cName",
          "type": "string"
        }
      ],
      "payable": false,
      "stateMutability": "view",
      "type": "function"
    },
    {
      "constant": false,
      "inputs": [
        {
          "name": "_pH",
          "type": "uint256"
        },
        {
          "name": "_hardness",
          "type": "uint256"
        },
        {
          "name": "_TDS",
          "type": "uint256"
        },
        {
          "name": "_companyAddress",
          "type": "address"
        }
      ],
      "name": "SubmitReport",
      "outputs": [
        {
          "name": "",
          "type": "uint256"
        }
      ],
      "payable": false,
      "stateMutability": "nonpayable",
      "type": "function"
    },
    {
      "constant": false,
      "inputs": [],
      "name": "scheduleMyfucntion",
      "outputs": [],
      "payable": false,
      "stateMutability": "nonpayable",
      "type": "function"
    },
    {
      "constant": false,
      "inputs": [],
      "name": "getLastReport",
      "outputs": [
        {
          "name": "ph",
          "type": "uint256"
        },
        {
          "name": "hardness",
          "type": "uint256"
        },
        {
          "name": "TDS",
          "type": "uint256"
        },
        {
          "name": "sign",
          "type": "bool"
        }
      ],
      "payable": true,
      "stateMutability": "payable",
      "type": "function"
    },
    {
      "constant": true,
      "inputs": [],
      "name": "getReports",
      "outputs": [
        {
          "name": "pH",
          "type": "uint256[10]"
        },
        {
          "name": "hardness",
          "type": "uint256[10]"
        },
        {
          "name": "TDS",
          "type": "uint256[10]"
        },
        {
          "name": "Latest",
          "type": "bool[10]"
        },
        {
          "name": "Sign",
          "type": "bool[10]"
        }
      ],
      "payable": false,
      "stateMutability": "view",
      "type": "function"
    },
    {
      "constant": false,
      "inputs": [],
      "name": "SignReport",
      "outputs": [
        {
          "name": "pH",
          "type": "uint256"
        },
        {
          "name": "hardness",
          "type": "uint256"
        },
        {
          "name": "TDS",
          "type": "uint256"
        },
        {
          "name": "latest",
          "type": "bool"
        },
        {
          "name": "sign",
          "type": "bool"
        }
      ],
      "payable": false,
      "stateMutability": "nonpayable",
      "type": "function"
    }
  ],
  "bytecode": "0x608060405234801561001057600080fd5b5033600160006101000a81548173ffffffffffffffffffffffffffffffffffffffff021916908373ffffffffffffffffffffffffffffffffffffffff160217905550611f39806100616000396000f3fe6080604052600436106100c5576000357c0100000000000000000000000000000000000000000000000000000000900463ffffffff1680633504903a146100c757806347ec26e5146101ae57806362bc56e6146101c557806385dd72b91461028f57806389a8df3a146103765780638cf1ff00146103f9578063a3c86daf146104f5578063add1e3e814610604578063ae82f7f614610653578063b1413ae61461074f578063c6f86142146107fc578063ed234e20146108e3578063eefa7a3e146109df575b005b3480156100d357600080fd5b50610100600480360360208110156100ea57600080fd5b8101908080359060200190929190505050610a16565b604051808373ffffffffffffffffffffffffffffffffffffffff1673ffffffffffffffffffffffffffffffffffffffff16815260200180602001828103825283818151815260200191508051906020019080838360005b83811015610172578082015181840152602081019050610157565b50505050905090810190601f16801561019f5780820380516001836020036101000a031916815260200191505b50935050505060405180910390f35b3480156101ba57600080fd5b506101c3610af2565b005b3480156101d157600080fd5b50610214600480360360208110156101e857600080fd5b81019080803573ffffffffffffffffffffffffffffffffffffffff169060200190929190505050610e5a565b6040518080602001828103825283818151815260200191508051906020019080838360005b83811015610254578082015181840152602081019050610239565b50505050905090810190601f1680156102815780820380516001836020036101000a031916815260200191505b509250505060405180910390f35b34801561029b57600080fd5b506102c8600480360360208110156102b257600080fd5b8101908080359060200190929190505050610fa1565b604051808373ffffffffffffffffffffffffffffffffffffffff1673ffffffffffffffffffffffffffffffffffffffff16815260200180602001828103825283818151815260200191508051906020019080838360005b8381101561033a57808201518184015260208101905061031f565b50505050905090810190601f1680156103675780820380516001836020036101000a031916815260200191505b50935050505060405180910390f35b34801561038257600080fd5b506103e36004803603608081101561039957600080fd5b81019080803590602001909291908035906020019092919080359060200190929190803573ffffffffffffffffffffffffffffffffffffffff16906020019092919050505061107d565b6040518082815260200191505060405180910390f35b34801561040557600080fd5b506104df6004803603604081101561041c57600080fd5b81019080803573ffffffffffffffffffffffffffffffffffffffff1690602001909291908035906020019064010000000081111561045957600080fd5b82018360208201111561046b57600080fd5b8035906020019184600183028401116401000000008311171561048d57600080fd5b91908080601f016020809104026020016040519081016040528093929190818152602001838380828437600081840152601f19601f8201169050808301925050505050505091929192905050506113aa565b6040518082815260200191505060405180910390f35b34801561050157600080fd5b5061050a611511565b6040518086600a60200280838360005b8381101561053557808201518184015260208101905061051a565b5050505090500185600a60200280838360005b83811015610563578082015181840152602081019050610548565b5050505090500184600a60200280838360005b83811015610591578082015181840152602081019050610576565b5050505090500183600a60200280838360005b838110156105bf5780820151818401526020810190506105a4565b5050505090500182600a60200280838360005b838110156105ed5780820151818401526020810190506105d2565b505050509050019550505050505060405180910390f35b34801561061057600080fd5b5061061961171c565b6040518086815260200185815260200184815260200183151515158152602001821515151581526020019550505050505060405180910390f35b34801561065f57600080fd5b506107396004803603604081101561067657600080fd5b81019080803573ffffffffffffffffffffffffffffffffffffffff169060200190929190803590602001906401000000008111156106b357600080fd5b8201836020820111156106c557600080fd5b803590602001918460018302840111640100000000831117156106e757600080fd5b91908080601f016020809104026020016040519081016040528093929190818152602001838380828437600081840152601f19601f8201169050808301925050505050505091929192905050506118b3565b6040518082815260200191505060405180910390f35b34801561075b57600080fd5b506107886004803603602081101561077257600080fd5b8101908080359060200190929190505050611a1a565b604051808881526020018781526020018681526020018581526020018473ffffffffffffffffffffffffffffffffffffffff1673ffffffffffffffffffffffffffffffffffffffff168152602001831515151581526020018215151515815260200197505050505050505060405180910390f35b34801561080857600080fd5b506108356004803603602081101561081f57600080fd5b8101908080359060200190929190505050611a96565b604051808373ffffffffffffffffffffffffffffffffffffffff1673ffffffffffffffffffffffffffffffffffffffff16815260200180602001828103825283818151815260200191508051906020019080838360005b838110156108a757808201518184015260208101905061088c565b50505050905090810190601f1680156108d45780820380516001836020036101000a031916815260200191505b50935050505060405180910390f35b3480156108ef57600080fd5b506109c96004803603604081101561090657600080fd5b81019080803573ffffffffffffffffffffffffffffffffffffffff1690602001909291908035906020019064010000000081111561094357600080fd5b82018360208201111561095557600080fd5b8035906020019184600183028401116401000000008311171561097757600080fd5b91908080601f016020809104026020016040519081016040528093929190818152602001838380828437600081840152601f19601f820116905080830192505050505050509192919290505050611b72565b6040518082815260200191505060405180910390f35b6109e7611cd9565b604051808581526020018481526020018381526020018215151515815260200194505050505060405180910390f35b60036020528060005260406000206000915090508060000160009054906101000a900473ffffffffffffffffffffffffffffffffffffffff1690806001018054600181600116156101000203166002900480601f016020809104026020016040519081016040528092919081815260200182805460018160011615610100020316600290048015610ae85780601f10610abd57610100808354040283529160200191610ae8565b820191906000526020600020905b815481529060010190602001808311610acb57829003601f168201915b5050505050905082565b73fcfb45679539667f7ed55fa59a15c8cad73d9a4e6000806101000a81548173ffffffffffffffffffffffffffffffffffffffff021916908373ffffffffffffffffffffffffffffffffffffffff160217905550606060405180807f6d796675636e74696f6e28290000000000000000000000000000000000000000815250600c0190506040518091039020604051602401604051602081830303815290604052907bffffffffffffffffffffffffffffffffffffffffffffffffffffffff19166020820180517bffffffffffffffffffffffffffffffffffffffffffffffffffffffff8381831617835250505050905060008060009054906101000a900473ffffffffffffffffffffffffffffffffffffffff1673ffffffffffffffffffffffffffffffffffffffff16638abdf5aa6040518163ffffffff167c010000000000000000000000000000000000000000000000000000000002815260040160206040518083038186803b158015610c6857600080fd5b505afa158015610c7c573d6000803e3d6000fd5b505050506040513d6020811015610c9257600080fd5b810190808051906020019092919050505065b5e620f480000190506000809054906101000a900473ffffffffffffffffffffffffffffffffffffffff1673ffffffffffffffffffffffffffffffffffffffff1663dea8dc4f82610258420130600062030d40633b9aca008960016040518963ffffffff167c0100000000000000000000000000000000000000000000000000000000028152600401808881526020018773ffffffffffffffffffffffffffffffffffffffff1673ffffffffffffffffffffffffffffffffffffffff1681526020018681526020018581526020018481526020018060200183151515158152602001828103825284818151815260200191508051906020019080838360005b83811015610dbe578082015181840152602081019050610da3565b50505050905090810190601f168015610deb5780820380516001836020036101000a031916815260200191505b509850505050505050505060408051808303818588803b158015610e0e57600080fd5b505af1158015610e22573d6000803e3d6000fd5b50505050506040513d6040811015610e3957600080fd5b81019080805190602001909291908051906020019092919050505050505050565b606060008090505b600654811015610f9a578273ffffffffffffffffffffffffffffffffffffffff166003600083815260200190815260200160002060000160009054906101000a900473ffffffffffffffffffffffffffffffffffffffff1673ffffffffffffffffffffffffffffffffffffffff161415610f8d57600360008281526020019081526020016000206001018054600181600116156101000203166002900480601f016020809104026020016040519081016040528092919081815260200182805460018160011615610100020316600290048015610f805780601f10610f5557610100808354040283529160200191610f80565b820191906000526020600020905b815481529060010190602001808311610f6357829003601f168201915b5050505050915050610f9c565b8080600101915050610e62565b505b919050565b60046020528060005260406000206000915090508060000160009054906101000a900473ffffffffffffffffffffffffffffffffffffffff1690806001018054600181600116156101000203166002900480601f0160208091040260200160405190810160405280929190818152602001828054600181600116156101000203166002900480156110735780601f1061104857610100808354040283529160200191611073565b820191906000526020600020905b81548152906001019060200180831161105657829003601f168201915b5050505050905082565b600080600090505b600954811015611171578273ffffffffffffffffffffffffffffffffffffffff166002600083815260200190815260200160002060040160009054906101000a900473ffffffffffffffffffffffffffffffffffffffff1673ffffffffffffffffffffffffffffffffffffffff161480156111275750600115156002600083815260200190815260200160002060040160149054906101000a900460ff161515145b801561115a5750600015156002600083815260200190815260200160002060040160159054906101000a900460ff161515145b1561116457600080fd5b8080600101915050611085565b5060008090505b60095481101561125c578273ffffffffffffffffffffffffffffffffffffffff166002600083815260200190815260200160002060040160009054906101000a900473ffffffffffffffffffffffffffffffffffffffff1673ffffffffffffffffffffffffffffffffffffffff1614801561121a5750600115156002600083815260200190815260200160002060040160149054906101000a900460ff161515145b1561124f5760006002600083815260200190815260200160002060040160146101000a81548160ff0219169083151502179055505b8080600101915050611178565b50600954600260006009548152602001908152602001600020600001819055508460026000600954815260200190815260200160002060010181905550836002600060095481526020019081526020016000206002018190555082600260006009548152602001908152602001600020600301819055508160026000600954815260200190815260200160002060040160006101000a81548173ffffffffffffffffffffffffffffffffffffffff021916908373ffffffffffffffffffffffffffffffffffffffff160217905550600160026000600954815260200190815260200160002060040160146101000a81548160ff021916908315150217905550600060026000600954815260200190815260200160002060040160156101000a81548160ff02191690831515021790555060016009600082825401925050819055506009549050949350505050565b60003373ffffffffffffffffffffffffffffffffffffffff16600160009054906101000a900473ffffffffffffffffffffffffffffffffffffffff1673ffffffffffffffffffffffffffffffffffffffff16141515611471576040517f08c379a000000000000000000000000000000000000000000000000000000000815260040180806020018281038252600f8152602001807f4973206e6f7420616e2041646d696e000000000000000000000000000000000081525060200191505060405180910390fd5b8260056000600854815260200190815260200160002060000160006101000a81548173ffffffffffffffffffffffffffffffffffffffff021916908373ffffffffffffffffffffffffffffffffffffffff1602179055508160056000600854815260200190815260200160002060010190805190602001906114f4929190611e20565b506001600860008282540192505081905550600854905092915050565b611519611ea0565b611521611ea0565b611529611ea0565b611531611ec4565b611539611ec4565b6000611543611ea0565b61154b611ea0565b611553611ea0565b61155b611ec4565b611563611ec4565b60008090505b6009548110156116ff573373ffffffffffffffffffffffffffffffffffffffff166002600083815260200190815260200160002060040160009054906101000a900473ffffffffffffffffffffffffffffffffffffffff1673ffffffffffffffffffffffffffffffffffffffff1614156116f25760026000828152602001908152602001600020600101548688600a8110151561160257fe5b60200201818152505060026000828152602001908152602001600020600201548588600a8110151561163057fe5b60200201818152505060026000828152602001908152602001600020600301548488600a8110151561165e57fe5b6020020181815250506002600082815260200190815260200160002060040160149054906101000a900460ff168388600a8110151561169957fe5b6020020190151590811515815250506002600082815260200190815260200160002060040160159054906101000a900460ff168288600a811015156116da57fe5b60200201901515908115158152505086806001019750505b8080600101915050611569565b85858585859b509b509b509b509b50505050505050509091929394565b600080600080600080600090505b6009548110156118aa573373ffffffffffffffffffffffffffffffffffffffff166002600083815260200190815260200160002060040160009054906101000a900473ffffffffffffffffffffffffffffffffffffffff1673ffffffffffffffffffffffffffffffffffffffff161480156117cc5750600115156002600083815260200190815260200160002060040160149054906101000a900460ff161515145b1561189d5760016002600083815260200190815260200160002060040160156101000a81548160ff0219169083151502179055506002600082815260200190815260200160002060010154600260008381526020019081526020016000206002015460026000848152602001908152602001600020600301546002600085815260200190815260200160002060040160149054906101000a900460ff166002600086815260200190815260200160002060040160159054906101000a900460ff1695509550955095509550506118ac565b808060010191505061172a565b505b9091929394565b60003373ffffffffffffffffffffffffffffffffffffffff16600160009054906101000a900473ffffffffffffffffffffffffffffffffffffffff1673ffffffffffffffffffffffffffffffffffffffff1614151561197a576040517f08c379a000000000000000000000000000000000000000000000000000000000815260040180806020018281038252600f8152602001807f4973206e6f7420616e2041646d696e000000000000000000000000000000000081525060200191505060405180910390fd5b8260046000600754815260200190815260200160002060000160006101000a81548173ffffffffffffffffffffffffffffffffffffffff021916908373ffffffffffffffffffffffffffffffffffffffff1602179055508160046000600754815260200190815260200160002060010190805190602001906119fd929190611e20565b506001600760008282540192505081905550600754905092915050565b60026020528060005260406000206000915090508060000154908060010154908060020154908060030154908060040160009054906101000a900473ffffffffffffffffffffffffffffffffffffffff16908060040160149054906101000a900460ff16908060040160159054906101000a900460ff16905087565b60056020528060005260406000206000915090508060000160009054906101000a900473ffffffffffffffffffffffffffffffffffffffff1690806001018054600181600116156101000203166002900480601f016020809104026020016040519081016040528092919081815260200182805460018160011615610100020316600290048015611b685780601f10611b3d57610100808354040283529160200191611b68565b820191906000526020600020905b815481529060010190602001808311611b4b57829003601f168201915b5050505050905082565b60003373ffffffffffffffffffffffffffffffffffffffff16600160009054906101000a900473ffffffffffffffffffffffffffffffffffffffff1673ffffffffffffffffffffffffffffffffffffffff16141515611c39576040517f08c379a000000000000000000000000000000000000000000000000000000000815260040180806020018281038252600f8152602001807f4973206e6f7420616e2041646d696e000000000000000000000000000000000081525060200191505060405180910390fd5b8260036000600654815260200190815260200160002060000160006101000a81548173ffffffffffffffffffffffffffffffffffffffff021916908373ffffffffffffffffffffffffffffffffffffffff160217905550816003600060065481526020019081526020016000206001019080519060200190611cbc929190611e20565b506001600660008282540192505081905550600654905092915050565b60008060008060008090505b600954811015611e10573373ffffffffffffffffffffffffffffffffffffffff166002600083815260200190815260200160002060040160009054906101000a900473ffffffffffffffffffffffffffffffffffffffff1673ffffffffffffffffffffffffffffffffffffffff16148015611d875750600115156002600083815260200190815260200160002060040160149054906101000a900460ff161515145b15611e03576002600082815260200190815260200160002060010154600260008381526020019081526020016000206002015460026000848152602001908152602001600020600301546002600085815260200190815260200160002060040160159054906101000a900460ff16945094509450945050611e1a565b8080600101915050611ce5565b50611e19610af2565b5b90919293565b828054600181600116156101000203166002900490600052602060002090601f016020900481019282601f10611e6157805160ff1916838001178555611e8f565b82800160010185558215611e8f579182015b82811115611e8e578251825591602001919060010190611e73565b5b509050611e9c9190611ee8565b5090565b61014060405190810160405280600a90602082028038833980820191505090505090565b61014060405190810160405280600a90602082028038833980820191505090505090565b611f0a91905b80821115611f06576000816000905550600101611eee565b5090565b9056fea165627a7a72305820b34f676d99743bf6887a3a61074d3e1492e08d6d491d83d1def9b04fa0c2b7870029",
  "source": "pragma solidity >=0.4.22 <0.6.0;\n\ncontract Aion {\n    uint256 public serviceFee;\n    function ScheduleCall(uint256 blocknumber, address to, uint256 value, uint256 gaslimit, uint256 gasprice, bytes memory data, bool schedType) public payable returns (uint,address);\n\n}\n\n\ncontract Water {\n\nAion aion;\n\naddress private admin;\n\nevent getReport (\n    uint pH\n);\n\nstruct report {\n    uint ID;\n    uint pH;\n    uint hardness;\n    uint TDS;\n    address sender;\n    bool latest;\n    bool sign;\n}\n\nstruct CompanyProp {\n    address CompanyAddress;\n    string Name;\n}\n\nstruct RegulatorProp {\n    address RegulatorAddress;\n    string Name;\n}\n\nstruct LabProp {\n    address LabAddress;\n    string Name;\n}\n\nmapping (uint => report) public reportStruct ;\n\nmapping (uint => CompanyProp) public Company;\n\nmapping (uint => RegulatorProp) public Regulator;\n\nmapping (uint => LabProp) public Lab;\n\nconstructor () public {\n    \n    admin = msg.sender;\n    \n}  \n    \n    modifier OnlyAdmin {\n        require (admin == msg.sender, \"Is not an Admin\");\n        _;\n    }\n    \n    uint CompanyID;\n       \n    modifier OnlyCompany {\n        for (uint i=0; i < CompanyID; i++){\n            if(Company[i].CompanyAddress == msg.sender){\n            _;\n            return;\n        }\n    }\n        revert();\n}\n\n    uint RegulatorID;\n       \n    modifier OnlyRegulator {\n        for (uint i=0; i < RegulatorID; i++){\n            if(Regulator[i].RegulatorAddress == msg.sender){\n            _;\n            return;\n        }\n    }\n        revert();\n}\n\n    uint LabID;\n       \n    modifier OnlyLab {\n        for (uint i=0; i < LabID; i++){\n            if(Lab[i].LabAddress == msg.sender){\n            _;\n            return;\n        }\n    }\n        revert();\n}\n    \n    function addCompany (address _company, string memory _name) public OnlyAdmin returns (uint) {\n        Company[CompanyID].CompanyAddress = _company;\n        Company[CompanyID].Name = _name;\n        \n        CompanyID += 1;\n        return (CompanyID);\n    }\n    \n    function addRegulator (address _regulator, string memory _name) public OnlyAdmin returns (uint) {\n        Regulator[RegulatorID].RegulatorAddress = _regulator;\n        Regulator[RegulatorID].Name = _name;\n        \n        RegulatorID += 1;\n        return (RegulatorID);\n    }\n    \n    function addLab (address _lab, string memory _name) public OnlyAdmin returns (uint) {\n        Lab[LabID].LabAddress = _lab;\n        Lab[LabID].Name = _name;\n        \n        LabID += 1;\n        return (LabID);\n    }        \n    \n    function getCompany (address _companyAddress) public view returns (string memory cName) {\n        for (uint i=0; i < CompanyID; i++) {\n            \n            if (Company[i].CompanyAddress == _companyAddress){\n            return (Company[i].Name);\n        }\n    }\n}\n    \n    uint reportID;\n    \n    function SubmitReport (uint _pH, uint _hardness, uint _TDS, address _companyAddress) public returns (uint) {\n        \n        //find the latest report and if it is not signed revert state\n        for (uint i=0; i < reportID; i++) {\n            if (reportStruct[i].sender == _companyAddress && reportStruct[i].latest == true && reportStruct[i].sign == false) {\n                revert();\n            }\n        }\n        \n        // find the latest report and change the bool to false before adding a new entry for that \n        // company\n        for (uint i=0; i < reportID; i++) {\n            if (reportStruct[i].sender == _companyAddress && reportStruct[i].latest == true) {\n                reportStruct[i].latest = false;\n            }\n        }\n        \n        reportStruct[reportID].ID = reportID;\n        reportStruct[reportID].pH = _pH;\n        reportStruct[reportID].hardness = _hardness;\n        reportStruct[reportID].TDS = _TDS;\n        reportStruct[reportID].sender = _companyAddress;\n        reportStruct[reportID].latest = true;\n        reportStruct[reportID].sign = false;\n        \n        reportID += 1;\n        return (reportID);\n    }\n    \n    function scheduleMyfucntion() public {\n        aion = Aion(0xFcFB45679539667f7ed55FA59A15c8Cad73d9a4E);\n        bytes memory data = abi.encodeWithSelector(bytes4(keccak256('myfucntion()')));\n        uint callCost = 200000*1e9 + aion.serviceFee();\n        aion.ScheduleCall.value(callCost)( block.timestamp + 10 minutes, address(this), 0, 200000, 1e9, data, true);\n    }\n    \n\n    function getLastReport () public payable returns (uint ph, uint hardness, uint TDS, bool sign) {\n        for (uint i=0; i < reportID; i++) {\n            if(reportStruct[i].sender == msg.sender && reportStruct[i].latest == true) {\n               return (reportStruct[i].pH, reportStruct[i].hardness, reportStruct[i].TDS, reportStruct[i].sign);\n               //emit getReport(reportStruct[i].pH);             \n            }\n            \n        } \n        scheduleMyfucntion();    \n    }\n\n    function getReports () public view returns (uint[10] memory pH, uint[10] memory hardness, uint[10] memory TDS, bool[10] memory Latest, bool[10] memory Sign) {\n        uint arrayID;\n        uint[10] memory arraypH;\n        uint[10] memory arrayHardness;\n        uint[10] memory arrayTDS;\n        bool[10] memory arrayLatest;\n        bool[10] memory arraySign;\n        \n        uint i=0;\n        while (i < reportID) {\n            if (reportStruct[i].sender == msg.sender) {\n                arraypH[arrayID] = reportStruct[i].pH;\n                arrayHardness[arrayID] = reportStruct[i].hardness;\n                arrayTDS[arrayID] = reportStruct[i].TDS;\n                arrayLatest[arrayID] = reportStruct[i].latest;\n                arraySign[arrayID] = reportStruct[i].sign;\n                arrayID++;\n            }\n               i++;\n        }\n        \n        return (arraypH, arrayHardness, arrayTDS, arrayLatest, arraySign);\n        \n    }\n    \n    function SignReport () public returns (uint pH, uint hardness, uint TDS, bool latest, bool sign) {\n        for (uint i=0; i < reportID; i++) {\n            if(reportStruct[i].sender == msg.sender && reportStruct[i].latest == true) {\n                reportStruct[i].sign = true;\n               return (reportStruct[i].pH, reportStruct[i].hardness, reportStruct[i].TDS, reportStruct[i].latest,\n               reportStruct[i].sign);\n            }\n    \n        }     \n    \n    }    \n\n    function () external payable {}\n\n\n}\n\n    \n    \n    \n    \n    \n    \n    \n    \n    \n    \n    \n",
  "sourcePath": "/home/manraj/dw-compliance/contracts/Water.sol",
  "compiler": {
    "name": "solc",
    "version": "0.5.0+commit.1d4f565a.Emscripten.clang"
  },
  "schemaVersion": "3.0.2",
  "updatedAt": "2019-05-19T14:04:08.726Z",
  "devdoc": {
    "methods": {}
  },
  "userdoc": {
    "methods": {}
  }
}